:020000040800F2
:10000000C0550220DD0100081B1D0008B11B0008BF
:10001000191D0008F5030008CD27000800000000A6
:10002000000000000000000000000000D7250008CC
:10003000F7030008000000001D1D0008D925000876
:10004000F7010008F7010008F7010008F7010008B0
:10005000F7010008F7010008F7010008F7010008A0
:10006000F7010008F7010008F7010008F701000890
:10007000F7010008F7010008F7010008F701000880
:10008000F7010008F7010008F7010008F701000870
:10009000F7010008F7010008F7010008F701000860
:1000A000F7010008F7010008F7010008F701000850
:1000B000F7010008F7010008F7010008F701000840
:1000C000F7010008F7010008F7010008F701000830
:1000D000F7010008F7010008F7010008F701000820
:1000E000F9030008F7010008F7010008F70100080C
:1000F000F7010008F7010008F7010008F701000800
:10010000F7010008F7010008F7010008F7010008EF
:10011000F7010008F7010008F7010008F7010008DF
:10012000F7010008F7010008F7010008F7010008CF
:10013000F7010008F7010008F7010008F7010008BF
:10014000F7010008F7010008F7010008F7010008AF
:10015000F7010008F7010008F7010008F70100089F
:10016000F7010008F7010008F7010008F70100088F
:10017000F7010008F7010008F7010008000000007F
:10018000F7010008F7010008F7010008F70100086F
:10019000F7010008F7010008F7010008F70100085F
:1001A000F7010008F7010008F7010008F70100084F
:1001B000F7010008F7010008F7010008F70100083F
:1001C000F7010008F7010008DFF80CD000F07AF81A
:1001D00000480047693A0008C05502200648804799
:1001E00006480047FEE7FEE7FEE7FEE7FEE7FEE71C
:1001F000FEE7FEE7FEE7FEE77D260008C9010008EE
:100200002DE9F05F0546002092469B46884606464B
:10021000814640241BE0284641464746224600F0DE
:1002200041F853465A46C01A914110D31146184618
:10023000224600F028F82D1A67EB01084F462246A7
:100240000120002100F01FF817EB00094E41201E8D
:10025000A4F10104DFDC484631462A464346BDE8A6
:10026000F09FD2B201E000F8012B491EFBD270478B
:100270000022F6E710B513460A4604461946FFF772
:10028000F0FF204610BD202A04DB203A00FA02F1DC
:10029000002070479140C2F1200320FA03F3194374
:1002A00090407047202A04DB203A21FA02F0002116
:1002B000704721FA02F3D040C2F120029140084376
:1002C00019467047064C074D06E0E06840F0010310
:1002D00094E8070098471034AC42F6D3FFF778FF54
:1002E0001C4300083C43000870B58C1810F8015BF3
:1002F00015F0070301D110F8013B2A1106D110F8BF
:10030000012B03E010F8016B01F8016B5B1EF9D1C2
:100310002B0705D40023521E0DD401F8013BFAE748
:1003200010F8013BCB1A921C03E013F8015B01F8B3
:10033000015B521EF9D5A142D8D3002070BD000048
:1003400010B504480124402100F0A6F900B10024B2
:10035000204610BD000402400146014801F05AB891
:100360003C4A0220044810B501F066F8042801D088
:10037000012010BD002010BD3C4A022010B500F045
:100380000BF8012801D0022010BDBDE81040014843
:1003900001F068B83C4A022008B501208DF8000041
:1003A000FFF7CEFF10B900208DF800009DF8000087
:1003B00008BD000038B50024009313460A460146E4
:1003C000034801F0DBF800B10124204638BD0000ED
:1003D0003C4A022038B50024009313460A460146E1
:1003E000034801F0D1F900B10124204638BD0000D6
:1003F0003C4A0220FEE770474FF4005000F054B82A
:10040000002200F001B800000E4B70B505465C7A82
:100410000120002C14D15E7A03F108009C555E7A0D
:1004200003EB860675605D7A2A54587A421C5A722C
:100430003A232F22303008704B7020468A70CC70DF
:1004400070BD0000B05102202DE9F047134E4FF46B
:100450000051134C88421FD1DFF8489000274CF21E
:10046000503588464146484600F016F968B180216B
:10047000304600F016F92760284602F029FB206874
:10048000401C20600928F7DDECE73046BDE8F04766
:100490000122802100F00BB9BDE8F0870004024082
:1004A000184A022000080240044910B50A680242B6
:1004B00002D00860FFF7C8FF10BD0000143C0140E7
:1004C0002DE9F84F00224FF001094FF0030A4FF0D9
:1004D0000F0E00BF0B6809FA02F42340A34270D14B
:1004E0004D68012D05D0022D03D0112D01D0122D04
:1004F00011D185685700CE680AFA07FC25EA0C0579
:10050000BE402E43866045680E79A543C6F30016AB
:1005100096402E434660C56856008F680AFA06F476
:10052000A543B7402F43C7604D68022D01D0122D5F
:1005300012D1D5080F694FEA427C00EB8505AB4626
:100540002D6A4FEADC6C0EFA0CF807FA0CF725EA74
:1005500008052F43CBF820700D79076805F00305D7
:10056000A743B5403D4305604C68E40074D53D4C5D
:10057000256845F480452560246822F00307960726
:1005800004F480440094384C360F2744D7F80848C8
:10059000DFF8D8C00EFA06F5604524EA050401D15B
:1005A00000252EE0324DA84201D1012529E0314D30
:1005B000A84201D1022524E02F4DA84202D10325F3
:1005C0001FE049E02D4DA84201D1042519E02C4D32
:1005D000A84201D1052514E02A4DA84201D10625E3
:1005E0000FE0294DA84201D107250AE0274DA84276
:1005F00001D1082505E0264DA84201D1092500E0DA
:100600000A25B540234E2543C7F808584D6834687D
:10061000ED0324EA030400D51C431E4D34602D1D58
:100620004E682C68B60324EA030400D51C43194E17
:100630002C6008364D683468ED0224EA030400D5C6
:100640001C43144D34600C354E682C68B60224EA05
:10065000030400D51C432C60521C102AFFF43AAF4F
:10066000BDE8F88F443802400030014000000240ED
:100670000004024000080240000C0240001002404A
:100680000014024000180240001C024000200240FA
:1006900000240240003C01400069084000D00120D5
:1006A000704742690A4200D00904816170470AB16B
:1006B000816170470904FBE70148806870470000CA
:1006C000244A022002488168027811448160704700
:1006D000244A0220032010B500F06EF8002000F03C
:1006E00005F800F023F8002010BD000070B50D4D96
:1006F00004464FF47A700C4A29781268B0FBF1F086
:10070000B2FBF0F001F032F948B9102C07D2002208
:100710002146501E00F030F800206C6070BD0120B2
:1007200070BD0000244A0220304A02200A4808B561
:10073000016841F080510160006800F08050009035
:100740000548001D016841F480410160006800F423
:100750008040009008BD000040380240002809DBBE
:10076000410900F01F028900012001F1E0219040C1
:10077000C1F80001704700000E4BF0B41B680D4635
:10078000C3F30223C3F10706042E00D90426191D62
:10079000072901D2002300E0DB1E012404FA06F140
:1007A0009C40491E2940641E994014402143F0BCDE
:1007B00002F00DB80CED00E0064900F0070210B59C
:1007C0004FF6FF040868044B204040EA022018431B
:1007D000086010BD0CED00E00000FA051848F8B5FF
:1007E000016841F0805101600068164C00F08050B3
:1007F0000090206840F480302060FFF75DFF4FF4E8
:100800007A76054605E000BFFFF756FF401BB04271
:100810000FD86068C003F7D5206840F4003020602E
:10082000FFF74AFF054606E0FFF746FF401BB042D0
:1008300001D90320F8BD60688003F5D50020F8BD1C
:1008400040380240007000402DE9F84F044600781F
:10085000DFF824944FF000063746C0070ED0D9F8D1
:10086000001021F40001C9F80010D9F80010626BE3
:100870001143C9F80010606B00B90126FE4D2068D5
:10088000843500030ED5E16B286820F4401008433E
:100890002860E06BB0F5801F01D010B102E00126A6
:1008A00000E0012720684FF4800BC0020CD5216CBA
:1008B000286820F4400008432860206C584501D186
:1008C000012601E000B901272068C10100D50126F9
:1008D000800666D5E8483830016841F080510160F3
:1008E0000068DFF898A300F080500090DAF800105C
:1008F00041F48071CAF80010FFF7DEFE804605E083
:10090000FFF7DAFEA0EB080064287DD8DAF80000D3
:10091000C005F5D5DFF8608308F16808D8F8000055
:1009200010F440702AD0218E01F44071814225D00C
:10093000D8F80010D8F8002021F4407142F4803239
:10094000C8F80020D8F8002022F48032C8F800202F
:10095000C8F80010D8F80000C0070FD0FFF7ACFEB1
:10096000824607E0FFF7A8FEA0EB0A0141F28830BB
:100970008142CAD8D8F800008007F3D5206BC0F3B5
:10098000012103297ED0D9F8001021F4F811C9F80B
:100990000010228ED8F80010C2F30B021143C8F8E1
:1009A00000102078C00607D5286820F080702860E5
:1009B0002868A16B084328602188AF488830490423
:1009C00005D5626E016821F4403111430160218830
:1009D000090405D5A26E016821F44021114301608C
:1009E0002168C90305D5E26E016821F44011114365
:1009F00001602168890305D5226F016821F4400157
:100A000011430160217800E018E1490605D5626CC8
:100A1000016821F00301114301602178090605D521
:100A2000A26C016821F00C01114301602188C90505
:100A300005D5E26C016821F0300111430160218885
:100A4000890505D5226D016821F0C00111430160BF
:100A50002188490505D5626D016821F44071114373
:100A600001602188090505D5A26D016821F4406166
:100A7000114301602188C90407D5E26D016821F4A2
:100A8000405100E041E0114301602188890405D50F
:100A9000226E016821F4404111430160216849023E
:100AA00005D5A26F016821F08061114301602168C2
:100AB0004FF0006A890209D5E26F016821F00061F8
:100AC00011430160E16F514500D1012721680A07F8
:100AD00000D50127490305D5626F016821F04071F7
:100AE000114301602168090206D5D4F8802001680D
:100AF00021F0805111430160DFF88491012E0ED066
:100B00002068B0F1007F0AD08FE05E4AD9F800304B
:100B1000104023F4F8120243C9F8002039E7D9F84D
:100B200000004E4620F08060C9F80000FFF7C4FDC9
:100B3000804605E0FFF7C0FDA0EB080064287DD8E3
:100B400030680001F6D421784B487C30C90712D0B8
:100B5000616B81B9237A62680168D0F800C09201A4
:100B6000C1F3014142EA0142CCF3036142EA01616F
:100B700041EA0371016021680A0303D5E26BB2F513
:100B8000801F04D0C9021AD5216C594517D163685A
:100B9000016894F80CC002689B01C1F3014143EA6B
:100BA0000141C2F3027241EA0C6141EA0271016043
:100BB0002968626A21F01F01521E114329602168D1
:100BC000C90110D5238A62680168D0F800C092017B
:100BD000C1F3036142EA034242EA0162CCF30271CB
:100BE00042EA01710160216889010CD56168228A9D
:100BF000237B94F808C0890141EA024141EA03617C
:100C000041EA0C7101603168B04641F080613160A9
:100C1000FFF752FD064604E0FFF74EFD801B6428F7
:100C20000CD8D8F800000001F6D56FB3D9F8000051
:100C30004E4620F08050C9F8000000E079E0FFF750
:100C40003BFD074605E000BFFFF736FDC01B6428EB
:100C50006FD83068C0438000F6D5074821688030DF
:100C60000A0301D5E26B1AB1C90225D5216C19BB63
:100C700063690168277E08E0083802400070004080
:100C800000380240FFFCFF0F5AE00268C1F3014147
:100C90009B0143EA0143C2F3027143EA076242EA5D
:100CA0000171016029686FF0FF03A26A21F4F85115
:100CB00003EB0222114329602168890212D5E16FFA
:100CC00051450FD1238C6269016807689201C1F315
:100CD000036142EA034242EA0162C7F3027142EA57
:100CE000017101602178090716D561690268D0F8A1
:100CF00000C08B01277FC2F30362CCF3014143EABA
:100D0000014141EA026141EA077101602868E16A34
:100D100020F4403008432860306840F08050306054
:100D2000FFF7CAFC044607E0FFF7C6FC001B642877
:100D300002D90320BDE8F88F3068C0438000F3D4A7
:100D40000020F7E72DE9F04705000F4663D0444E39
:100D5000306800F00F00B84209D2306820F00F0070
:100D600038433060306800F00F00B84253D1286833
:100D70003C4C810712D5400703D5206840F4E05071
:100D800020602878000703D5206840F46040206088
:100D9000A968206820F0F000084320602878C00788
:100DA0002AD0304968680839012810D0096802281B
:100DB00010D0890700292EDA216821F003010143B0
:100DC0002160FFF779FC804641F288390DE009681F
:100DD0008903EFE78901EDE7FFF76EFCA0EB08015F
:100DE000494502D90320BDE8F0876868216801F011
:100DF0000C01B1EB800FEFD1306800F00F00B8426A
:100E00000BD9306820F00F0038433060306800F0B4
:100E10000F00B84201D00120E5E72878400705D54A
:100E2000E968206820F4E050084320602878000733
:100E300006D52869216821F4604141EAC00020609C
:100E400000F018F82168084AC1F30311515CC8404A
:100E50000649086006480068FFF748FC0020C2E722
:100E6000003C02400838024070420008304A02202C
:100E7000284A0220154910B51548096811F00C02DE
:100E800013D04110042A0FD0082A0ED10F4C241F72
:100E90002268236802F03F025B0207D52068C0F396
:100EA0008810A0FB010106E0084610BD2168C1F3CF
:100EB0008811A1FB00010023FFF7A2F92168C1F30B
:100EC0000141491C4900B0FBF1F010BD0838024057
:100ED0000024F4002DE9F84F04004FF000076ED015
:100EE0002078DFF868A3AAF10408C007A8F1040578
:100EF0004CD0DAF800105046C1F38101012908D026
:100F00000068C0F3810002280AD1D8F8000040022E
:100F100006D52868800339D560680028DFD035E021
:100F20006068B0F5803F0BD010B1B0F5A02F11D0A4
:100F3000286820F480302860286820F4802002E0AF
:100F4000286840F480302860606890B1FFF7B4FBF7
:100F500006460AE0286840F480202860F0E700BFD9
:100F6000FFF7AAFB801B642872D828688003F7D596
:100F70000CE0FFF7A1FB064605E000BFFFF79CFB76
:100F8000801B6428F0D828688003F7D42078800775
:100F900042D5DAF80010504611F00C0F08D0006866
:100FA000C0F3810002280BD1D8F80000400207D41A
:100FB0002868800718D5E068012800D114E041E1D5
:100FC000E0680028286817D040F001002860FFF78B
:100FD00073FB064605E000BFFFF76EFB801B02288F
:100FE000C2D828688007F7D52069296821F0F80160
:100FF00041EAC00028600FE020F001002860FFF700
:101000005BFB064605E000BFFFF756FB801B02288E
:101010001ED828688007F7D42078000729D58B4888
:1010200061696C3000298146016812D041F00101EC
:101030000160FFF741FB064605E000BFFFF73CFB00
:10104000801B022804D8D9F800008007F6D510E0EC
:1010500089E021F001010160FFF72EFB064604E064
:10106000FFF72AFB801B02287DD8D9F800008007F3
:10107000F6D4207840076BD5DFF8D09109F1380914
:10108000D9F80000C0000BD4D9F8001041F080510D
:10109000C9F80010D9F80000012700F08050009036
:1010A0006B480168C90512D40168834641F4807118
:1010B0000160FFF701FB064605E000BFFFF7FCFA01
:1010C000801B64284FD8DBF80000C005F6D55F4EC2
:1010D000A068683601280AD008B1052811D0306808
:1010E00020F001003060306820F0040002E0306839
:1010F00040F001003060A068A0B1FFF7DDFA834640
:101100000CE0306840F004003060F0E7FFF7D4FAFC
:10111000A0EB0B0141F28830814266D8306880072D
:10112000F4D50EE0FFF7C8FA834607E0FFF7C4FAEC
:10113000A0EB0B0141F28830814256D8306880071D
:10114000F4D42FB1D9F8001021F08051C9F8001063
:10115000A069C8B3DAF80010C1F3810102294BD0AD
:101160000228286800E040E020F08070286003D06A
:10117000FFF7A2FA04463BE0FFF79EFA064604E0BA
:10118000FFF79AFA801B02282FD828688001F7D42D
:10119000D4E90962D4E907012E4B570894F82C20B2
:1011A000084303EB074343EA8611084340EA026021
:1011B00040F00050C8F80000286840F080702860B7
:1011C000FFF77AFA044606E03EE000BFFFF774FA44
:1011D000001B022809D828688001F7D534E000BF39
:1011E000FFF76AFA001B022802D90320BDE8F88F36
:1011F00028688001F4D427E00128D8F8000021D025
:10120000E16900F480028A421CD1216A00F03F02A9
:101210008A4217D1626A47F6C0710140B1EB821F62
:1012200010D1A16A4FF0FF3200F4403302EB5101BC
:10123000B3EB014F06D194F82C1000F07060B0EBC6
:10124000016F01D00120D1E70020CFE7083802402C
:10125000007000400000FFFFF0B5426E920F0A7070
:10126000426EC2F383624A70426EC2F301628A70B8
:10127000426E120CCA70B0F86420120A0A7190F81B
:1012800064204A71826E120DCA80826EC2F30342DC
:101290000A72B0F86820C2F3C0324A72B0F868200F
:1012A000C2F380328A72B0F86820C2F34032CA7248
:1012B000B0F868200026C2F300320A734E73012290
:1012C000436C4FF4007463B1012B3AD0036850496A
:1012D0009963816B41F08051816380F83420012053
:1012E000F0BDB0F86830C56E9B051B0D43EA9573E1
:1012F0000B61C36EC3F3C2630B75C36EC3F30263AA
:101300004B75C36EC3F342538B75C36EC3F38243F5
:10131000CB75C36EC3F3C2330B760D696D1C456587
:101320000B7E03F007039B1C9D4045650B7A04660A
:1013300003F00F0302FA03F35F0A7D43C0E9163599
:101340000EE090F86850C36EAD06AD0A45EA13434F
:101350000B610B695B1C9B024365C0E91643046685
:10136000B0F86C30C3F380334B76B0F86C30C3F315
:10137000C6138B7690F86C3003F07F03CB76036F47
:10138000DB0F0B77036FC3F341734B77036FC3F32B
:1013900082638B77036FC3F38353CB77036FC3F3FE
:1013A000405381F8203081F82160036FC3F300437C
:1013B00081F82230B0F87030C3F3C03381F82330A5
:1013C000B0F87030C3F3803381F82430B0F8703057
:1013D000C3F3403381F82530B0F87030C3F30033E5
:1013E00081F82630B0F87030C3F3812381F82730BC
:1013F000B0F87030C3F3012381F8283090F8700002
:10140000C0F3460081F8290081F82A200020F0BDB1
:10141000FF054000426C0A60826C4A60C26C8A60C0
:10142000026DCA60426D0A61826D4A61C26D8A6155
:10143000006EC8610020704770B5B0F850100025EC
:1014400004460068090400F08DFD18B1A16B01434A
:10145000A16304E02068002100F038FF0546C5F3D1
:10146000432070BD70B504000ED094F83400002500
:1014700018B92046257700F03DF8032084F83400A1
:10148000204600F00AF808B1012070BD0120A563D4
:10149000256384F83400002070BD3EB504467620F4
:1014A000002100910B460A46CDE90110206800F0AA
:1014B00010FF08B101203EBD2068416821F4807111
:1014C0004160206800F016FF2068416841F4807197
:1014D0004160204600F0C0FF4FF0010520B92046D2
:1014E00000F042FF0028E6D084F83450A16B01439D
:1014F000A163DFE7F0B587B0044614216846FEF724
:10150000B7FE1A49206888422DD11948016841F474
:1015100000610160006800F4006005901448143810
:10152000016841F004010160016801F004010591C6
:10153000016841F008010160006802240025694645
:1015400000F00800059003260C274FF488508DE822
:10155000F1000848FEF7B4FF042069468DE8F10069
:101560000548FEF7ADFF07B0F0BD0000002C0140BC
:101570004438024000080240000C02402DE9FF4FB1
:1015800087B016460D460446FFF796F8B34600901E
:101590003DB194F83400012807D0A06B40F0005012
:1015A0000EE0A06B40F000600AE00A990026E26DB0
:1015B0000BEB0100A663904204D9A06B40F00070D1
:1015C000A063DCE0032084F834002068C662606C0D
:1015D000012801D04FEA4B2B20684FF4007100F036
:1015E000D1FBDFF8A0A14FF0010140B12368C3F89F
:1015F00038A0A26B0243A26384F83410BFE00A9AB9
:10160000022702A8B146FB1E0193520206919026C2
:10161000884680E8C402206801A900F021FD0A98EC
:10162000012805D927635946206800F025FC05E00C
:10163000C4F830805946206800F037FC50B1256866
:10164000C5F838A0A16B0143A16384F83480C4F8C5
:10165000309094E0029E1CE0406B000411D586B1EE
:101660000027206800F056FE020A2870010C6A70FC
:10167000030EA970361FEB707F1C082F05F10405BF
:10168000EFD3FFF719F80099411A149881421ED23E
:10169000E8B12068416B11F4957FDDD0416BC9053D
:1016A00009D50A99012906D9616C032903D000F0F4
:1016B0008BFC0028C3D12068416B090716D5414631
:1016C000C0F838A0A26B484642F0080218E0236830
:1016D000C3F838A0A26B42F00042A26384F83480C1
:1016E000C4F8309003200BB0BDE8F08F416B890740
:1016F0000BD54146C0F838A0A26B484642F0020222
:10170000A26384F83410206339E0416B89061DD54B
:10171000C0F838A0A16B484641F02001A16384F8CD
:101720003480F0E700F0F6FD02462A70030A6B7081
:10173000010CA970000EE8702D1D361FFEF7BCFFCE
:101740000099411A149881420ED268B12068416B09
:10175000890201D5002EE5D1024640F23A5191634B
:1017600084F834800020BEE72368C3F838A0A16B5A
:1017700041F00041A16384F83480C4F83090012026
:10178000B1E70000FF0540002DE9FF4F89B0164684
:101790000D460446FEF790FF06903DB194F83400E4
:1017A000012807D0A06B40F000500DE0A06B40F086
:1017B000006009E00C980027E16D3044A76388427F
:1017C00004D9A06B40F00070A063B5E0032084F85A
:1017D00034002068C762606C012800D0760220685F
:1017E0004FF4007100F0CEFADFF87CB14FF0010148
:1017F00040B12368C3F838B0A26B0243A26384F8F7
:10180000341099E00C9A3846CDE90401BA464FF0FD
:10181000FF335202894690276946CDE90270CDE92F
:101820000032206800F01CFC0C98012806D920200A
:1018300020632068314600F0E1FB05E010202063C2
:101840002068314600F0F3FB5FEA000809D0216808
:101850004A465346C1F838B0A06B40EA0800A0637E
:101860003EE0019E23E0406B400418D5BEB1002746
:1018700028780790361F697840EA01200790A978F8
:1018800040EA01400790E9782D1D40EA0160079089
:10189000206807A900F052FD7F1C082FE8D3FEF74F
:1018A0000BFF0699411A169881421DD2E0B12068BB
:1018B000416B11F48D7FD6D0416BC90523D50C99AE
:1018C000012920D9616C03291DD000F07DFBD0B126
:1018D00025684A465346C5F838B0A16B0143A16359
:1018E00084F83420236327E02268C2F838B0A16B63
:1018F00041EA0801A16384F83490C4F830A00320C1
:101900000DB0BDE8F08F2068416B090707D5494647
:10191000C0F838B0A26B504642F0080218E0416BA4
:1019200089070BD5C0F838B0A16B504641F00201D1
:10193000A16384F8349020630120E1E7416BC9067C
:101940000AD54946C0F838B0A26B504642F01002A2
:10195000A26384F83410EEE740F23A52826384F8CE
:1019600034900020CCE70000FF054000401EB0F19D
:10197000807F10B501D3012010BD4FF0E0246061DD
:101980000F21601700F023FF0020A06107212161D3
:1019900010BD4FF0E020016921F0020101617047A4
:1019A000F0B590F83C20012A3BD01F4E012480F86E
:1019B0003C40022280F83D2002681C4D5368B24230
:1019C000D2F808C001D0AA4203D14F6823F47003B3
:1019D0003B430F6823F070031F4357600268B24215
:1019E00013D0B2F1804F10D0114B9A420DD0114B51
:1019F0009A420AD0104B9A4207D0AA4205D00F4B08
:101A00009A4202D00E4B9A4204D189682CF080038E
:101A100019439160002180F83D4080F83C10084651
:101A2000F0BD0220F0BD00000000014000040140B4
:101A30000004004000080040000C0040004001404D
:101A40000018004010B5040003D094F83D0010B118
:101A500007E0012010BD002084F83C00204600F083
:101A60000DF8022084F83D002068211D00F014FECE
:101A7000012084F83D00002010BD000008B500687A
:101A80000649884208D10648016841F00101016019
:101A9000006800F00100009008BD00000000014057
:101AA000443802400A4B022180F83D1001688A68E0
:101AB0001A40062A06D0B2F5803F03D00A6842F0E9
:101AC00001020A60012180F83D10002070470000EB
:101AD0000700010070B5044690F83C00012817D0BB
:101AE000324B012584F83C50022084F83D002268E6
:101AF0009068184020F47F4090600868502830D0EB
:101B00000DDC20284DD005DC98B310283BD148E0EF
:101B1000022070BD302844D0402834D139E06028FC
:101B200028D0702806D0B0F5805F2CD0B0F5005FCB
:101B300029D10AE04A682068D1E9021300F012FEB8
:101B40002068816841F0770109E04A682068D1E99E
:101B5000021300F007FE2068816841F48041816033
:101B600011E0CA684968206800F00DFE2068502125
:101B700007E016E0CA684968206800F015FE206892
:101B8000602100F0F8FD002084F83D5084F83C000E
:101B900070BDCA684968206800F0F5FD20684021E2
:101BA000EFE7226801461046EBE7000088FFFEFFE2
:101BB000FEE700000449054810B5FEF721FC024984
:101BC000491E087010BD00001E4A02205C42000839
:101BD0002DE9F04186B014216846FEF749FB3348F1
:101BE000016841F004010160016801F00401059100
:101BF000016841F080010160016801F080010591F8
:101C0000016841F001010160016801F001010591E5
:101C1000016841F002010160016801F002010591D3
:101C2000016841F00801016000680022204FF021A6
:101C300000F0080005903846FEF739FDDFF87480A3
:101C400044F28106002231464046FEF730FD1A4933
:101C500000244FF400508DE8130018486946FEF741
:101C60002FFC01256946F0200090CDE9015438464B
:101C70000394FEF725FC00966946CDE901544046E1
:101C80000394FEF71DFC40206946CDE90004404660
:101C90000294FEF715FC002228201146FEF76CFD89
:101CA0002820FEF75BFD06B0BDE8F0813038024029
:101CB0000000024000040240000031100008024011
:101CC00010B588B0134800241149D7224FF6FE738F
:101CD000059406940394049400940194029480E87B
:101CE0001600C0E9033444618461FFF7ABFE4FF492
:101CF00080500390074803A9FFF7ECFE05486946AA
:101D0000009401940294FFF74BFE08B010BD000050
:101D100000000140C04A0220FEE77047704730B51E
:101D200085B00446372040220DF1080CCDE90010A3
:101D300000236946150120468CE82C0000F0EDFADE
:101D4000372141F28832204600F09EF905B030BDBF
:101D500030B50B4A85B004462920114340220DF1CD
:101D6000080CCDE9001000236946150120468CE8D7
:101D70002C0000F0D2FA204600F03EFA05B030BD4B
:101D80000000108030B585B0044610200DF1080C1D
:101D90008501CDE9001040226946002320468CE8E9
:101DA0002C0000F0BAFA102141F28832204600F0EF
:101DB0006BF905B030BD000030B585B00546002494
:101DC00069464FF48060009401940294CDE9034089
:101DD000284600F0A2FA0B4A4FF4FA5041F288313B
:101DE0001268B2FBF0F04843401E03D24FF00040AF
:101DF00005B030BD696B0906F6D5C5212046A9633B
:101E0000F6E70000304A022070B585B0044608218C
:101E10004FF4D57040250026CA0104928DE8630076
:101E20006946204600F079FA124A4FF4FA5041F21E
:101E300088311268B2FBF0F04843401E03D24FF0E5
:101E4000004005B070BD616B11F0450FF5D009057C
:101E5000F3D4606B400701D5042003E0606BC0073A
:101E600002D00120A063ECE7606B400600D5A563BB
:101E70003046E6E7304A022030B585B004461220ED
:101E800040220DF1080CCDE9001000236946150130
:101E900020468CE82C0000F040FA122141F28832F2
:101EA000204600F0F1F805B030BD30B585B00446ED
:101EB000112040220DF1080CCDE9001000236946E5
:101EC000150120468CE82C0000F027FA112141F280
:101ED0008832204600F0D8F805B030BD30B585B066
:101EE000044640210DF1040C0720009200230D014F
:101EF0008CE82B006946204600F00FFA072141F2DA
:101F00008832204600F0C0F805B030BD10B586B06C
:101F1000044600210220C02243020493CDE90010B0
:101F2000CDE902216946204600F0F7F9204600F08D
:101F30003BF906B010BD30B585B0044609200DF15F
:101F4000080CC022CDE90010002369464FF48065DB
:101F500020468CE82C0000F0E0F9204600F024F93F
:101F600005B030BD30B585B004460D2040220DF1DE
:101F7000080CCDE9001000236946150120468CE8C5
:101F80002C0000F0CAF90D2141F28832204600F001
:101F90007BF805B030BD30B585B00C460021054654
:101FA00003204022CDE90221CDE90010130169464A
:101FB0002846049300F0B1F903212246284600F098
:101FC0003DF905B030BD000010B586B004460021D3
:101FD0000C204022CDE90221CDE900101301694611
:101FE0002046049300F099F9034A0C21204600F0A2
:101FF0004BF806B010BD000000E1F50530B585B026
:102000000446192040220DF1080CCDE900100023F0
:102010006946150120468CE82C0000F07EF9192154
:1020200041F28832204600F02FF805B030BD30B5BF
:1020300085B00446182040220DF1080CCDE90010AF
:1020400000236946150120468CE82C0000F065F954
:10205000182141F28832204600F016F805B030BD54
:1020600070B50A6842624A688262C46AD1E9022590
:10207000D1E9043624F0F7012A4333431A431143CC
:10208000C162002070BD000010B5454C4FF4FA53FA
:102090002468B4FBF3F353435B1E02D24FF00040BD
:1020A00010BD426B12F0450FF6D01205F4D4426B0E
:1020B000520703D504218163084610BD426BD20745
:1020C00002D00121816305E0C52282630269D2B298
:1020D0008A4201D0012010BD002100F0F7F83149FB
:1020E000084201D1002010BD002802DA4FF0007034
:1020F00010BD410001D5402010BD810001D58020D8
:1021000010BDC10002D54FF4807010BD010102D591
:102110004FF4007010BD410102D54FF4806010BD36
:10212000C10102D54FF4006010BD010202D54FF489
:10213000805010BD410202D54FF4005010BD810205
:1021400002D54FF4804010BDC10202D54FF40040CB
:1021500010BD410302D54FF4003010BD810302D5FC
:102160004FF4802010BDC10302D54FF4002010BDF4
:10217000010402D54FF4801010BD410402D54FF484
:10218000001010BD810402D54FF4800010BD00077F
:1021900002D54FF4000010BD4FF4803010BD000098
:1021A000304A022008E0FFFD124B4FF4FA5141F291
:1021B00088321B68B3FBF1F15143491E02D24FF044
:1021C00000407047426B12F0450FF6D01205F4D470
:1021D000416B490703D50421816308467047416B71
:1021E000C90703D00121816308467047C521816377
:1021F00000207047304A02200F4B4FF4FA5141F251
:1022000088321B68B3FBF1F15143491E02D24FF0F3
:1022100000407047426B12F0450FF6D01205F4D41F
:10222000416B490703D50421816308467047C521E6
:102230008163002070470000304A022030B5204DF5
:102240004FF4FA5341F288342D68B5FBF3F363433E
:102250005B1E02D24FF0004030BD446B14F0450FBE
:10226000F6D02405F4D4436B5B0703D504218163C6
:10227000084630BD436BDB0702D00121816303E0D8
:102280000369DBB28B4201D0012030BDC5218163DF
:10229000002100F01BF810F4604F04D0410406D573
:1022A0004FF4005030BD000C1080002030BD000401
:1022B00002D54FF4805030BD4FF4803030BD000067
:1022C000304A0220006800F003007047084440696B
:1022D000704770B511434268049EDDE905543343ED
:1022E00047F6FF6619432943B24321430A4342603C
:1022F000002070BD06490322002302604FF4FA62F9
:10230000086843620868416A9142FCD30020704724
:10231000C04A0220D0F88000704770B50A68826019
:10232000C468D1E90125D1E90336210B2A4333439F
:1023300009031A431143C160002070BD0968C0F849
:10234000801000207047000010B5064C012020705E
:10235000FEF708F818B9207820F0010020702078E6
:1023600010BD00001C4A022010B590B004460120A8
:10237000ADF838002068FFF7A5FF002854D0606C46
:10238000032842D02068FFF7C1FD00284AD1206809
:102390000021FFF79BFF606704212068FFF796FF8D
:1023A000A06708212068FFF791FFE0670C212068F3
:1023B000FFF78CFF616CC4F88000032925D02068EA
:1023C0000EA9FFF7E8FD00282CD1606C03281CD073
:1023D000BDF83810216520680904FFF7ACFD00281E
:1023E00020D120680021FFF771FF6066042120687A
:1023F000FFF76CFFA06608212068FFF767FFE06623
:102400000C212068FFF762FF206704212068FFF796
:102410005DFF000DE06403A92046FEF71DFF30B10B
:102420004FF0805010B010BD4FF08060FAE7B4F864
:102430005000002302042068FFF750FD0028F1D16E
:1024400004F1100007C88DE8070094E80F00FFF7BB
:1024500040FF0020E6E700002DE9F84F0026044683
:102460003546B04600960068FFF7A6FC002827D145
:102470002068FFF7C9FC4FF0805B4FF001094FF671
:10248000FF7748B1A6642068FFF796FC002817D1B3
:10249000A06C012802D020E0C4F8489000212068F8
:1024A000FFF73DFC58B918E020680021FFF737FC22
:1024B000002805D120685146FFF74AFC10B1584664
:1024C000BDE8F88F20680021FFF700FF4FEAD078C1
:1024D00005460098401C009002E0DFF82CA0009810
:1024E000B84202D2B8F1000FDED00098B84202D351
:1024F0004FF08070E4E7680002D5C4F8449000E033
:1025000066640020DCE70000000010C170B5064CD6
:10251000054601202070FDF731FF18B92846FFF766
:1025200013FF2070207870BD1C4A0220144810B59B
:1025300088B014460078C00702D0032008B010BD50
:1025400039B1012907D002290BD0032910D004206A
:10255000F4E70020F2E76846FDF7FEFE069900204A
:102560000CE06846FDF7F8FE079900202180E5E7BA
:102570006846FDF7F1FE07990020490A2160DDE772
:102580001C4A022070B501241D4616460846A31EAB
:102590002A463146FDF70EFF28B900BFFDF7E2FEDF
:1025A0000028FBD10024204670BDFFF7CDBE0000FF
:1025B00070B501241D4616460846A31E2A4631461C
:1025C000FDF708FF28B900BFFDF7CCFE0028FBD1BE
:1025D0000024204670BD7047FEF774B870B5B4B0E3
:1025E000302121A8FDF744FE14212DA8FDF740FE5F
:1025F00084216846FDF73CFE1E48016841F0805189
:102600000160006800F0805032901B48016841F47E
:102610004041016000680224D82500F44040329017
:1026200001200926820501040423CDE92742CDE9D2
:102630002101CDE92935CDE92B4621A8FEF74AFC39
:10264000FEF7CCF8E2024FF4A0510025CDE930129C
:102650002DAA0F20072182E831002DA8FEF772FB7A
:102660004FF420001F95209500906846FEF7ECF887
:1026700034B070BD403802400070004005484FF053
:1026800000610368034A43F470030360803A1160F9
:102690007047000088ED00E0F0B5274B4FF0804E0A
:1026A000264D02689842264E264F274C09D0704589
:1026B00007D0A84205D0B04203D0B84201D0A04212
:1026C00005D1D1F804C022F070024CEA020298420F
:1026D0001BD0704519D0A84217D0B04215D0B842CF
:1026E00013D0A04211D0194DA8420ED0184DA842C7
:1026F0000BD0184DA84208D0174DA84205D0174D51
:10270000A84202D0164DA84203D1CD6822F44072EF
:102710002A434D6922F080022A43026098428A6867
:10272000C2620A68826201D0A04201D109690163D4
:1027300001214161F0BD00000000014000040040A3
:1027400000080040000C004000040140004001402F
:10275000004401400048014000180040001C0040B7
:102760000020004042EA032283680A4323F47F41A9
:102770000A4382607047826822F070020A4342F086
:1027800007018160704710B5036A046A23F00A03E9
:1027900024F00104046284690B4324F0F00141EA4F
:1027A00002118161036210BD10B5036A23F01003AA
:1027B00003628369046A23F4704324F0A00443EAAB
:1027C0000232826144EA0111016210BDFEE709078D
:1027D00000284FEA116104DB00F1E02080F80014CA
:1027E000704700F00F0000F1E02080F8141D7047E2
:1027F00002E008C8121F08C1002AFAD170477047CA
:10280000002001E001C1121F002AFBD17047000027
:1028100010B504460022501EE270E062204601F02E
:10282000AAFB08B1042010BD04F22E2001F016F915
:10283000A0F52A41553901D0032010BD94F830008D
:10284000E92805D0EB2814D194F83200902810D153
:1028500004F1660001F0F7F80749B1EB002F06D04C
:1028600004F1820001F0EFF80449884201D1002010
:1028700010BD022010BD00000046415446415433B3
:10288000F0B5154D0022134605EB021426685EB123
:102890000768BE4209D166688768BE4205D1A46850
:1028A0004669B44204D000E00123521C022AEBD353
:1028B000022A01D069B904E04BB9022907D01220DD
:1028C000F0BD05EB02108089B0F5807F01D00020BB
:1028D000F0BD1020F0BD00009051022030B5064B35
:1028E0000024214603EB01121568854200D11460D3
:1028F000491C0229F6D330BD90510220C26A490A10
:1029000000684089B1FBF0F0121D02CA19B188427B
:1029100003D3401AF8E70020704711680844704755
:102920004269891E921E8A4201D800207047826A3D
:10293000408901FB002070472DE9F04105680F0038
:10294000804606D000F0ACFF022809D20120BDE885
:10295000F081EE6816B16869B04207D8012605E03B
:10296000411CF4D069698142F1D83E463446686919
:10297000641CA04203D8022E4FF002040AD3214661
:10298000404600F08DFF38B10128E0D0411CDED078
:10299000B442ECD10020DAE74FF0FF362146324650
:1029A000284601F001FB30B957B122463946284686
:1029B00001F0FAFA20B101280FD001242046C6E721
:1029C000D5E90401EC60891E884201D8401E2861C7
:1029D000287940F001002871F0E73446EEE7000066
:1029E0002DE9F04124300D680B220E4620210446CB
:1029F00001F0BAFA00204FF0080C01462A5C401C96
:102A0000202A13D92F2A0CD05C2A0AD02E2A01D0D2
:102A1000614516D3BCF10B0F20D02E2A1ED10CE03D
:102A2000401C2B5C2F2BFBD05C2BF9D02844306052
:102A3000A1B12078E5281DD01EE008214FF00B0C35
:102A4000DCE7802A03D3104B1A4412F8802C0FA322
:102A500000E05B1C1F7827B19742FAD10620BDE841
:102A6000F081A2F16103192B01D8203AD2B262544D
:102A7000491CC3E705202070202A01D8042000E06B
:102A80000020E0720020EAE780420008222A2B2C76
:102A90003A3B3C3D3E3F5B5D7C7F0000401E022890
:102AA00012D20A4901EB00118889B0F5807F05D068
:102AB00008B1401E80B2888110B103E00020FAE71F
:102AC00000200860002070470220704790510220CB
:102AD000044900220B685A6209684A6A8242FCD3A0
:102AE00070470000C04A02202DE9F041056800212E
:102AF000044600F0DAF8002827D1E169284601F001
:102B00003AFA020020D1206A0178A1B1C17A01F01D
:102B10003F01A171C17A090710D40B2304F12401EC
:102B200010F8016B5B1E11F8017BA6EB070604D0C1
:102B3000002EF5D002E0042206E02EB1002120464E
:102B400000F006F80200D8D01046BDE8F081000081
:102B50002DE9F04705464769C069894620372C684A
:102B600010B1B7F5001F02D30420BDE8F087F905C6
:102B700060D1A969401C4FF00008E86129B1608963
:102B8000401E10EA572F05D054E02089B0EB571FA4
:102B90001DD94FE0284600F083FE012806461BD9C8
:102BA000701C33D06069B0423ED8B9F1000F0ED02E
:102BB000A9692846FFF7C0FE06000BD0012E0BD0F6
:102BC000701C23D0204601F005FBF8B906E0C5F8DB
:102BD0001C80C9E70720C8E70220C6E700214FF4A0
:102BE000007204F1300001F0BFF94FF000083146E7
:102BF0002046FFF795FE4FF00109E0620DE000BFAF
:102C0000204684F8039001F0E5FA08B10120ACE712
:102C1000E16A08F10108491CE16261894145EFD888
:102C2000E16AA1EB0800E06231462046AE61FFF7A1
:102C300077FEE861C7F3080020446F6130302862F6
:102C4000002092E770B506680021044600F02DF8D8
:102C50000DE0E169304601F08EF950B9206A007844
:102C6000E52809D040B101212046FFF771FF002877
:102C7000EFD0042807D007E0E169304601F07BF986
:102C8000050003D00FE0072005460CE0206A202253
:102C9000002101F069F9206A0B2204F1240101F0FE
:102CA00059F90120F070284670BD2DE9F041076800
:102CB000B1F5001F0E46054636D2F00634D1AC6899
:102CC0006E6124B93878032805D37C6A1CB17889F1
:102CD0004FEA402812E03889B0EB561F24D9786AB1
:102CE00012E0284600F0DCFD0446401C1AD0022CFD
:102CF0001AD37869A04217D9A6EB080621464645A3
:102D0000EFD23846FFF70CFEC5E9064060B100EB94
:102D10005622C6F30801C8193030C5E90720002043
:102D2000BDE8F0810120FBE70220F9E70849002215
:102D300010B50B5C4BB901220A5401EB8002084428
:102D40005168007A096888470246104610BD0000A5
:102D5000B0510220044B30B403EB80041844636884
:102D6000007A1B6930BC1847B051022030B4054CC2
:102D700004EB800520446C68007AA468A44630BC4B
:102D800060470000B0510220034901EB8002084473
:102D90005168007A49680847B051022030B4054CA8
:102DA00004EB800520446C68007AE468A44630BCDB
:102DB00060470000B051022038B5044600F0FCFA2C
:102DC00000280CD16946204601F02DFA002806D1D2
:102DD0002069FFF763FE002801D10021216038BD82
:102DE0002DE9FE4F0D460446694601F01CFA070026
:102DF00067D1677D002FFBD1E06A04F1300B4FF003
:102E0000020A4FF0010800286DD0691C2CD0E06840
:102E1000A84200D20546A561002D52D0691E204669
:102E2000FFF76CFDE06101460098FFF779FD00288F
:102E300079D0009BA5F10105218B5A89C905A2F122
:102E4000010202EA552202EB0005E6D0226AAA42FC
:102E5000E3D0207D00063BD5587801235946FFF783
:102E60009DFF00286FD12FE004C8A168022583468A
:102E70000192F1B100260291AD1C8946761C2046D4
:102E800000F00EFD012801464DD9481C5BD009F128
:102E900001008142F1D00198854206D80BF104026D
:102EA000CBF80060029801C29346009840698842BE
:102EB000E0D8E16A019885420D6003D80021CBF883
:102EC000001098E0112796E0207D00F07F0020752B
:102ED000009801232A4659464078FFF747FF00280B
:102EE00031D1256287E0E068A84203D2217D8907BD
:102EF00000D40546A0694FF00009C4F818900DB33E
:102F0000009949894FEA412670B1691E401EB1FB04
:102F1000F6F1B0FBF6F2914206D3721EE1699043DE
:102F2000A0612D1A0DE04FE0A16849B900212046AB
:102F3000FFF702FD0128014646D0481C55D0A1608C
:102F4000E161D9B927E050E0227DAD1BA069304492
:102F5000A0619207204605D5FFF7EEFC010004D1E1
:102F600000250DE000F09CFC0146481C3DD00129E5
:102F70002AD900984069884226D9E161B542E3D850
:102F8000A069EA052844A06105D00098FFF7C8FCB5
:102F9000D0B100EB5529E168A069884204D9217DB0
:102FA000E06041F040012175C00524D0226A4A4505
:102FB00021D0207D000610D5009801235946407885
:102FC000FFF7ECFE88B904E0022084F815A0BDE804
:102FD000FE8F207D00F07F002075009801234A4677
:102FE00059464078FFF7C2FE18B1012084F81580D9
:102FF000EDE7C4F820903846E9E700002DE9F741F5
:1030000081B0904602980090684600F0AAFC040047
:1030100003D50B2004B0BDE8F0810D4E002756F813
:1030200024501DB12846FFF759FC2F700198002845
:1030300000D0077046F8240002D0B8F1010F01D08B
:103040000020E7E7002201A902A800F0C3FAE1E7A7
:10305000384A02202DE9F743050092B00BD002F068
:103060003F06694613A8324600F0B4FA04004FF058
:10307000000804D0EDE0092015B0BDE8F083009809
:10308000049004A8139900F0D1FB04000ED19DF820
:103090003F00000601D5062408E0700801D0012198
:1030A00000E0002104A8FFF7EBFB044616F01C0F1C
:1030B0005DD04FF00109C4B1042C10D16849002043
:1030C00002E0401C022804D201EB00121268002A20
:1030D000F7D1022807D004A8FFF7B4FD044646F054
:1030E00008065CB1B5E01224B3E09DF8160010F0BC
:1030F000110F47D1700701D50824AAE0300747D542
:1031000000F02DFC07460C9839460E3001F012F8FD
:103110000C983946163001F00DF80C982021C17238
:103120000C99009800F07CFC0C990022074600984E
:1031300000F0ECFF0C9800211C3000F0FBFF009920
:1031400081F8039017B3D1F82C90002204A83946D7
:1031500000F0A2FF04007CD10098494600F00BFF6C
:1031600004000098A7F10107C7600DD071E0E4BB2F
:103170009DF81600C10601D504246AE0B10703D505
:10318000C00701D0072464E0300701D546F04006AF
:103190000098C06A68620C98A862700801D001218A
:1031A00000E0002104A800F0FBFB2861C0B30C99EB
:1031B000009800F035FCA8600C981C3000F043FC2F
:1031C000C5F82C800146E96005F1300000994FF404
:1031D0000072296081460099C988A98000212E7556
:1031E00085F81580C5F8208000E032E0C5F8188029
:1031F00000F0BAFEB0062ED5EE6866B3AE61009858
:10320000A968408947020FE0284600F049FB0128E1
:10321000014600D80224481C03D0F61B24B105E067
:103220001BE00124F61B01E0BE42EDD8E96184B940
:10323000F00510D00098FFF773FB70B100EB562239
:103240002A620098012349464078FFF78FFD10B1AC
:103250000124C5F8008020460EE70224F9E70000AB
:10326000905102202DE9F04F89B015460022994671
:103270000446884603A91A6000F0D5FF002812D141
:10328000607D00280FD1207DC0070BD0A2690127E7
:10329000E16804F1300B4FF0020A881A854200D928
:1032A000054684E0072009B0BDE8F08FA169C80594
:1032B00065D103984089401E10EA512611D129B1E9
:1032C000E06A28B12046FFF719FB05E0A06803E09B
:1032D000E169204600F0E4FA02281BD3411C49D0E2
:1032E000E061E1690398FFF71BFB98B1690A04915B
:1032F0003044019025D00398721841898A4201D93F
:10330000891B049140784146049B019AFFF72EFDEA
:1033100080BB03E0022084F815A0C4E7207D0006EE
:103320000CD5216A0198081A0499884206D208EB44
:10333000402059464FF4007200F00CFE04984602FB
:103340002BE0226A824218D0207D00060AD503981D
:10335000012359464078FFF721FD58B9207D00F040
:103360007F00207503980123019A59464078FFF7A2
:10337000FDFC10B10120677595E701982062208B54
:10338000C0F30800C0F50076AE4200D92E46011900
:1033900032463031404600F0DDFDA169AD1BB0443E
:1033A0008819A061D9F800008119C9F80010002D12
:1033B0007FF47CAF002076E7F8B50446694600F05C
:1033C00032FF00280ED1217D4A060BD508060ED506
:1033D00000980123226A04F130014078FFF7DEFCF7
:1033E00008B10120F8BD207D00F07F00207500F0BD
:1033F000B6FA616A0646009800F0BDFD0028F1D1DA
:10340000A56A2946E87A40F02000E872A2682068A0
:1034100000F07CFEE16805F11C0000F08BFE05F178
:103420001600314600F086FE002105F1120000F082
:1034300089FE00980121C17000F088FE217D01F015
:10344000BF012175F8BD2DE9F04F89B01546002266
:1034500099460446884602A91A6000F0E4FE002856
:1034600006D1607D002803D1207D800703D407208A
:1034700009B0BDE8F08FA069012704F1300B4FF0CF
:10348000020A411900D3C5439AE0A169C80574D165
:1034900002984089401E10EA512618D129B1E06AED
:1034A00038B12046FFF72AFA07E0A06838B90021B2
:1034B00000E0E1692046FFF73FFA00287DD00128AF
:1034C0002DD0411C53D0A168E06101B9A060207DDE
:1034D00000060BD502980123226A59464078FFF76F
:1034E0005DFCA0BB207D00F07F002075E1690298A3
:1034F000FFF716FA98B1690A03913044019027D07A
:103500000298721841898A4201D9891B0391407837
:103510004146039B019AFFF741FCC0B903E002203A
:1035200084F815A0A4E7216A0198081A0399884233
:103530000AD208EB402158464FF4007200F00AFD11
:10354000207D00F07F0020750398460227E00EE002
:10355000216A81420FD0E168A06988420BD20298AB
:103560000123019A59464078FFF700FC18B1012069
:1035700067757DE701E001982062208BC0F30800A9
:10358000C0F50076AE4200D92E4641462044324670
:10359000303000F0DFFC207D40F080002075A26913
:1035A000B044E1689019A061884200D80846E06004
:1035B000D9F80000AD1B811900E004E0C9F8001043
:1035C000002D7FF462AF207D40F040002075002088
:1035D0004EE700002DE9FF41002790460E460F60A0
:1035E00000F0BFF9050003D50B2004B0BDE8F08161
:1035F0008B4850F825409CB1346008F0FE062078D6
:1036000020B16078FFF7C0FBC1070BD02770B84628
:10361000E8B26070FFF78AFBC10708D00320E4E737
:103620000C20E2E70EB1400704D40020DDE71EB114
:10363000400701D50A20D8E7002620463146FFF78B
:10364000E7F8022822D100254FEA0D0704EB051008
:1036500090F8F21100F5F77019B1083000F0F3F9A5
:1036600000E0002047F825006D1C042DEED3002556
:1036700057F8256036B131462046FFF7C9F80228D1
:1036800001D203E003206D1C042DF1D3042809D0DE
:1036900002286FD204F13B0000F0E0F9B0F5007FA2
:1036A00068D101E00120A0E704F1460000F0D6F95E
:1036B000010004D104F1540000F0C5F9014694F86A
:1036C0004050A161012DA57001D0022D52D14D4372
:1036D00094F83D006081E8B3411E08424AD104F1EC
:1036E000410000F0BBF90107208143D104F1430000
:1036F00000F0B4F9070004D104F1500000F0A3F980
:10370000074604F13E0000F0A9F9020032D02389F7
:10371000501900EB13118F422CD360897F1AB7FB2D
:10372000F0F0B8B103274FF6F57C604500D80227CA
:1037300040F6F57C604500D801273244801C3144B6
:10374000A1626061032FC4E9076215D013B151195A
:10375000022F00E00EE061621FD000F0010100EBDB
:10376000400001EB500000BFA16900F2FF10B1EB77
:10377000502F14D20D2038E704F15A0000F06EF9F2
:103780000028F7D120890028F4D104F15C0000F072
:103790005AF9616960628800E6E74000E4E74FF0AB
:1037A000FF3121618020E160032F20712CD104F1D1
:1037B000600000F053F9012826D1711C204600F06A
:1037C000DAFB08BB04F22E2084F8048000F046F9EE
:1037D000A0F52A41553917D104F1300000F033F932
:1037E0001049884210D104F5057000F02CF90E49FB
:1037F000884209D104F5067000F025F9206104F52E
:10380000077000F020F9E06005492770091F08885B
:10381000401C0880E0802046FFF760F805E70000C4
:10382000384A0220525261417272416173B5056893
:103830000446019801E0401C019001782F29FAD03C
:103840005C29F8D00021A16001980078202806D2D8
:10385000802084F82F002046FFF727FA7CBD01A9BD
:103860002046FFF7BDF80028F8D12046FFF73CF9C5
:1038700094F82F1028B10428F0D14907EED4052080
:103880007CBD4907FCD4A079C006F8D5A08AC0F356
:10389000080041192846303100F0C2F8A060DEE788
:1038A0002DE9F041046802290D460BD36069A84256
:1038B00008D920784FF0FF36012807D002282BD0F6
:1038C000032839D001263046BDE8F081206A05EB97
:1038D000550700EB5721204600F04DFB0028F2D1A0
:1038E000C7F3080020447F1C90F83080206A00EB6A
:1038F0005721204600F03FFB0028E4D1C7F3080021
:103900002044E90790F8302048EA022001D0060957
:10391000D9E7C0F30B06D6E7206A00EB1521204655
:1039200000F029FB0028CED1E8B204EB4000303093
:1039300000F094F80646C6E7206A00EBD511204651
:1039400000F019FB0028BED140F2FF1000EA85000C
:103950002044303000F077F820F07046B3E70020C4
:10396000704710B5026804464FF0FF30002A13D0AC
:10397000114600E0491C0B78212B0ED33A2BF9D1CC
:1039800012F8013B303B0A2B06D28A4204D1002BAD
:1039900002D1491C1846216010BD002010BD000056
:1039A000F0B51E4A034605685FF0000002EB001404
:1039B0002668AE4207D166689F68BE4203D1A468FC
:1039C0005E69B44202D0401C0228EFD3022814D111
:1039D000002002E0401C022804D202EB00142468FC
:1039E000002CF7D102280ED002EB0014002625602F
:1039F0009D6865605B69A360A681002902EB0011E8
:103A0000898902D019B10020F0BD491C01E04FF4B2
:103A1000807102EB0012401C9181F0BD9051022098
:103A200070B50D46064601F11A0000F017F804467D
:103A30003078032805D105F1140000F00FF844EAAE
:103A40000044204670BD837842780178C07843EA0C
:103A5000002042EA002041EA0020704701784078C7
:103A600041EA002070470000BFF34F8FBFF36F8F14
:103A7000FE4800260660BFF34F8FBFF36F8FFC49EF
:103A8000086840F400300860BFF34F8FBFF36F8FBA
:103A9000F74870300660BFF34F8F001F43F6FF7585
:103AA0000068F24C1034C0F34E32C0F3C90305EA8B
:103AB0004217184647EA807CC4F800C0401EF9D27D
:103AC000521EF4D2BFF34F8F086840F48030086074
:103AD000BFF34F8FBFF36F8FFCF7FCFDFEF77EFD4A
:103AE000FEF776F8E448E349C0E900168660C66050
:103AF000066146618661FEF75DF8FEF7E1F8FDF7C5
:103B000048FFDD488430FDF7CDFFDB48FDF7AAFC18
:103B1000D9480022D949C430FFF770FAD84C112295
:103B2000D8A1A070DA48FFF795FA20700A22DC4885
:103B3000D8A1FFF78FFA6070DA4F207820B9012200
:103B400038461146FCF7B3FDE6603146D0482661A1
:103B5000FFF746F9CA4B0222CD481433A3F10E01F8
:103B6000FFF780FBC649FF22E068B146891DDFF8F8
:103B700038A3801CE06001F1220546F2A8180878FD
:103B8000BB463038087000EB800348783038487006
:103B900002EB43020244E27084F804900AE18021BF
:103BA0005846FCF77EFDBA48E168FFF719F9B44BB7
:103BB000BE4E1433B64803F114013246FFF752FBF0
:103BC000E16846F2A717C4F81C90C4F8209031446D
:103BD000C4F81890E160206A295C312911D12918B4
:103BE0004A78302A7ED18A78312A3DD1C978302965
:103BF000F8D1E1690126001D4A1C0AF80160C4E9F8
:103C00000720295C302927D12A185178312910D171
:103C10009178302958D1D178312973D1E169001DCB
:103C200005264A1C0AF80160C4E90720285C3028F0
:103C300012D1226AA9184878302840D188783028D3
:103C400075D1C87830287DD1E0690926411C121D44
:103C50000AF80060C4E90712206A295C31292AD1D8
:103C60002844407830283DD1206A29188A78302AA3
:103C700038D1C978312911D1E169001D02264A1CC9
:103C80000AF80160C4E90720295C312913D12918F9
:103C90004878302876D18878302873D1226AA818DD
:103CA000C07830286ED1E0690326411C121D0AF845
:103CB0000060C4E90712206A285C302862D1206ABB
:103CC0002844407831282DD1206A2A18917831294A
:103CD00013D1D178302955D1E1690426001D0AF8A5
:103CE000016000E04EE04A1CC4E90720295C30294D
:103CF00048D128444078312814D1206A284480785B
:103D000030283FD1206A2918C97830293AD1E16991
:103D1000001D06264A1C0AF80160C4E90720285C39
:103D200030282FD1206A2844407830282AD1206AB0
:103D30002A189178312913D1D178302922D1E1691B
:103D4000072600E011E0001D4A1C0AF80160C4E9E2
:103D50000720295C302915D128444078302811D11A
:103D6000206A2844807830280CD1206A2918C97824
:103D7000312907D1E1690826001D4A1C0AF80160B3
:103D8000C4E90720A069401CA061B8427FF723AFB7
:103D900043482169FFF724F8394B464642494246D9
:103DA0003F481433FFF74FFB2069304420612079EE
:103DB000401C20712179E07881427FF6F0AE3448D2
:103DC000FEF7FAFF3648FEF7F7FF01223548910368
:103DD000FCF76DFC4EF66020FEF77AFE30481122AB
:103DE0002CA1FFF737F9324D4FF4FA7B60704E4645
:103DF0004FF0400AC4F810904FF01009A068002856
:103E0000FCD066712CE026482169FEF7E9FF1C4BC7
:103E10004246284922481433FFF724FA2069254FE7
:103E2000666240442061606A385C0A280ED2DFE88E
:103E300000F00D05074A4C5063727584202046E05F
:103E4000202048E04FEA0B00FEF742FE606A46F28F
:103E5000A711401C60628842E5DD6079401C6071FA
:103E60006079E1788842CED9002225E050EF00E069
:103E700014ED00E0002C01403C4A02201E4A0220C2
:103E800000000020434F44452E7478740000000069
:103E9000304D022053544D33322E7478740000009C
:103EA000604F022000040240C8860120A086010065
:103EB0000000024070E8012025484FF48041FCF7E3
:103EC000F6FBA6609AE7202018E04FF4001080214E
:103ED00003E04FF400104FF40001A861A961C5F898
:103EE0001890C5F818A05846FEF7F2FD4FF4801060
:103EF000A8618100A961A5E74FF40010A8618021A5
:103F0000A961C5F81890C5F818A05846FEF7E0FD5D
:103F10004FF480100FE02020802101E02020810458
:103F2000A861A961C5F81890C5F818A05846FEF711
:103F3000CFFD4FF48000A86184E72020A861802194
:103F4000A961C5F81890C5F818A04FF47A707BE7FE
:103F500000040240002A05D011F8013B521E00F86F
:103F6000013BF9D1704700005FFA81F1521E00F861
:103F7000011BFBD1704770B50446C06A00260D4690
:103F8000A8420FD0204600F025F906000AD160783B
:103F9000012304F130012A46FEF7E8FE08B1751E40
:103FA0000126E562304670BD2DE9F047022917462B
:103FB0000D4604464FF002066BD36069A84268D9EB
:103FC00020784FF00109012804D0022838D00328B6
:103FD0005FD145E0216A05EB5508204601EB5821E9
:103FE000FFF7C9FF060054D1C8F308002044EA07D0
:103FF00008F1010800F1300004D00178FAB262F350
:104000001F1100E03946017084F803902046216AB0
:1040100001EB5821FFF7AFFF06003AD1C8F30800C3
:104020002044E90700F1300002D0C7F3071105E092
:104030000178C7F3032201F0F0011143017026E07B
:10404000206A00EB15212046FFF795FF060020D1DE
:10405000E8B2B9B204EB4000303000F073F816E07B
:10406000206A00EBD5112046FFF785FF060010D12E
:1040700040F2FF1000EA8500204430300546FFF78B
:10408000E2FC0146284667F31B0100F053F884F870
:1040900003903046BDE8F0872DE9F041056802291C
:1040A00013460E4607462DD36869B0422AD93BB164
:1040B0004FF0FF3219462846FFF776FF00281FD140
:1040C00031463846FFF7ECFB040018D0012C19D01C
:1040D000601C19D0002231462846FFF765FF0028F2
:1040E0000ED1D5E90410821E914205D22A79491CCD
:1040F000296142F001022A712646B042E0D8002030
:10410000BDE8F0810220FBE70120F9E770B50C461D
:10411000154691B2064604F11A0000F013F8307803
:10412000032806D1290C04F11400BDE8704000F00A
:1041300009B870BD0A0A01704270110A81700A0A3A
:10414000C27070470A0A01704270704770B5044629
:1041500000F040F8050036D1207803282CD12079D2
:10416000012829D1420204F1300000210646FFF760
:10417000FBFE04F22E204AF65521FFF7E3FF134918
:104180003046FFF7D7FF124904F50570FFF7D2FF5D
:10419000216904F50670FFF7CDFFE16804F50770AB
:1041A000FFF7C8FFE26901233146521CE2626078E2
:1041B000FEF7F4FD00202071002260781146FEF722
:1041C000C9FD00B10125284670BD00005252614171
:1041D000727241612DE9F0410446C0780027F8B1C0
:1041E000E56A04F13001607801232A468846FEF72B
:1041F000D5FD08B1012713E0226A0020A169AA1A9F
:10420000E0708A420CD2A67808E0A06901234146FA
:10421000054460782A46FEF7C1FD761E022EF4D2D0
:104220003846BDE8F08170B504000E464FF0090530
:104230000CD0206850B1017841B1A188C288914268
:1042400004D14078FEF7A0FDC00703D00020306005
:10425000284670BD20680025F9E700000D250008FC
:10426000AB25000885250008B12500082D2500088C
:104270000000000000000000010203040607080916
:1042800043554541414141434545454949494141DE
:104290004592924F4F4F5555594F554F9C4F9E9FAA
:1042A00041494F55A5A5A6A7A8A9AAABACADAEAFED
:1042B000B0B1B2B3B4414141B8B9BABBBCBDBEBFE5
:1042C000C0C1C2C3C4C54141C8C9CACBCCCDCECF81
:1042D000D1D145454549494949D9DADBDCDD49DFDA
:1042E0004FE14F4F4F4FE6E8E85555555959EEEF1E
:1042F000F0F1F2F3F4F5F6F7F8F9FAFBFCFDFEFF46
:104300000100040010004000000100020000010054
:104310000200040008001000200000003C430008D8
:10432000000000203C4A0200E8020008EC470008B8
:104330003C4A0220840B000000280008611205029C
:104340001F0102FF0501FF01FF01FF01FF01FF0146
:10435000FF01FF01FF01FF01FF01FF01FF01FF015D
:10436000FF01FF01FF01FF01FF01FF01FF01FF014D
:10437000FF01FF01FF01FF01FF01FF01FF01FF013D
:10438000FF01FF01FF01FF01FF01FF01FF01FF012D
:10465000FF01FF012702FF0501FF01FF01FF01FF2D
:1046600001FF01FF01FF01FF01FF01FF01FF01FF4A
:1046700001FF01FF01FF01FF01FF01FF01FF01FF3A
:1046800001FF01FF01FF01FF01FF01FF01FF01FF2A
:1046900001FF01FF01FF01FF01FF01FF01FF01FF1A
:1046A00001FF01FF01FF01FF01FF01FF01FF01FF0A
:1046B00001FF01FF01FF01FF01FF01FF01FF01FFFA
:1046C00001FF01FF01FF01FF01FF01FF01FF01FFEA
:1046D00001FF01FF01FF01FF01FF01FF01FF01FFDA
:1046E00001FF01FF01FF01FF01FF01FF01FF01FFCA
:1046F00001FF01FF01FF01FF01FF01FF01FF01FFBA
:1047000001FF01FF01FF01FF01FF01FF01FF01FFA9
:1047100001FF01FF01FF01FF01FF9102FF0501FF02
:1047200001FF01FF01FF01FF01FF01FF01FF01FF89
:1047300001FF01FF01FF01FF01FF01FF01FF01FF79
:1047400001FF01FF01FF01FF01FF01FF01FF01FF69
:1047500001FF01FF01FF01FF01FF01FF01FF01FF59
:1047600001FF01FF01FF01FF01FF01FF01FF01FF49
:1047700001FF01FF01FF01FF01FF01FF01FF01FF39
:1047800001FF01FF01FF01FF01FF01FF01FF01FF29
:1047900001FF01FF01FF01FF01FF01FF01FF01FF19
:1047A00001FF01FF01FF01FF01FF01FF01FF01FF09
:1047B00001FF01FF01FF01FF01FF01FF01FF01FFF9
:1047C00001FF01FF01FF01FF01FF01FF01FF01FFE9
:1047D00001FF01FF01FF01FF01FF01FF01FF01FFD9
:0C47E000D19A010882109324F40000001C
:04000005080001C925
:00000001FF
